9042942623143      2314300400     0000      000000000000000000CH888OUT      008                                                                                         
3300429426320062CASO0503143383142287935697432143214321432100024294263142025416944457000000000207631        000000000299840000184010006903131000690311000000000299C1N    
3301000000000046345D2006230000   AP ALT GLD      31433143429426020230522P100100                     A1234A1234567
3300429426320062CASO0503143463142264407900432143214321432100024294263142091694173201000000000205667        000000002050702000170290005077519000507747000000002050C1N    
3301000000000403850D5901810000948SPR PREMIUM CARD31423143429426020230522P100100          YA05431                                                                        
3300429426320062CASO0503143303142282268915432143214321432100024294263142091694175719000000000205670        000000000980702000170290005077519000507747000000000980C1N    
3301000000000132300D5901810000   AP ALT CLS      31423143429426020230522P100100          YA05431                                                                        
3300429426320062CASO0503143383142277382956432143214321432100024294263142091694184463000000000205670        000000000920702000170290005077519000507747000000000920C1N    
3301000000000165600D5901810000947PREMIUM CARD    31423143429426020230522P100100          YA05431                                                                        
3300429426320062CASO0503143583142281299034432143214321432100024294263142091694185817000000000205670        000000000790702000170290005077519000507747000000000790C1N    
3301000000000155630D5901810000948SPR PREMIUM CARD31423143429426020230522P100100          YA05431                                                                        
3300429426320062CASO0503143463142280768821432143214321432100024294263142091694186393000000000205670        000000000820702000170290005077519000507747000000000820C1N    
3301000000000161540D5901810000948SPR PREMIUM CARD31423143429426020230522P100100          YA05431                                                                        
3300429426320062CASO0503143483142281312345432143214321432100024294263142091694187151000000000205670        000000000800702000170290005077519000507747000000000800C1N    
3301000000000157600D5901810000948SPR PREMIUM CARD31423143429426020230522P100100          YA05431                                                                        
3300429426320062CASO0503143463142288150533432143214321432100024294263142025417603573000000000207737        000000080000586000170290005077519000507747000000000376C1N    
3301000000000060160D2006230000901STANDARD        31423143429426020230522P100100          YA0543                                                                         
3300429426320062CASO0503143463142273726451432143214321432100024294263142091694190031000000000205670        000000001610702000170290005077519000507747000000001610C1N    
3301000000000317170D5901810000948SPR PREMIUM CARD31423143429426020230522P100100          YA05431                                                                        
3300429426320062CASO0503143583142262265266432143214321432100024294263142091694191716000000000205667        000000003050702000170290005077519000507747000000003050C1N    
3301000000000573400D5901810000   AP ALT PLT      31423143429426020230522P100100          YA05431                                                                        
3300429426320062CASO0503143383142273554867432143214321432100024294263142091694193738000000000205670        000000001670702000170290005077519000507747000000001670C1N    
3301000000000328990D5901810000948SPR PREMIUM CARD31423143429426020230522P100100          YA05431                                                                        
920042942623143000000000000000000000000000000170000000135051000000        000067756000000000000000000000000000000000000000000000000000000000000000000000000000000       
